{
  "contractName": "SmartMarket",
  "abi": [
    {
      "constant": true,
      "inputs": [],
      "name": "seller",
      "outputs": [
        {
          "name": "",
          "type": "address"
        }
      ],
      "payable": false,
      "stateMutability": "view",
      "type": "function",
      "signature": "0x08551a53"
    },
    {
      "constant": true,
      "inputs": [],
      "name": "goodcount",
      "outputs": [
        {
          "name": "",
          "type": "uint256"
        }
      ],
      "payable": false,
      "stateMutability": "view",
      "type": "function",
      "signature": "0x20ba062c"
    },
    {
      "inputs": [],
      "payable": true,
      "stateMutability": "payable",
      "type": "constructor",
      "signature": "constructor"
    },
    {
      "constant": false,
      "inputs": [
        {
          "name": "id",
          "type": "uint256"
        }
      ],
      "name": "buyitnowprice",
      "outputs": [
        {
          "name": "",
          "type": "string"
        }
      ],
      "payable": true,
      "stateMutability": "payable",
      "type": "function",
      "signature": "0x22947a60"
    },
    {
      "constant": false,
      "inputs": [
        {
          "name": "id",
          "type": "uint256"
        }
      ],
      "name": "buy",
      "outputs": [
        {
          "name": "",
          "type": "string"
        },
        {
          "name": "",
          "type": "bool"
        }
      ],
      "payable": true,
      "stateMutability": "payable",
      "type": "function",
      "signature": "0xd96a094a"
    },
    {
      "constant": true,
      "inputs": [],
      "name": "getBalance",
      "outputs": [
        {
          "name": "",
          "type": "string"
        },
        {
          "name": "",
          "type": "uint256"
        }
      ],
      "payable": false,
      "stateMutability": "view",
      "type": "function",
      "signature": "0x12065fe0"
    },
    {
      "constant": false,
      "inputs": [
        {
          "name": "id",
          "type": "uint256"
        }
      ],
      "name": "sellerconfirm",
      "outputs": [
        {
          "name": "",
          "type": "string"
        },
        {
          "name": "",
          "type": "bool"
        }
      ],
      "payable": true,
      "stateMutability": "payable",
      "type": "function",
      "signature": "0xae4f85c0"
    },
    {
      "constant": true,
      "inputs": [
        {
          "name": "id",
          "type": "uint256"
        }
      ],
      "name": "extraction",
      "outputs": [
        {
          "name": "",
          "type": "string"
        },
        {
          "name": "",
          "type": "bool"
        }
      ],
      "payable": false,
      "stateMutability": "view",
      "type": "function",
      "signature": "0xf35bcbfe"
    },
    {
      "constant": false,
      "inputs": [],
      "name": "takemoney",
      "outputs": [],
      "payable": false,
      "stateMutability": "nonpayable",
      "type": "function",
      "signature": "0xf698fe9e"
    },
    {
      "constant": false,
      "inputs": [
        {
          "name": "_name",
          "type": "string"
        },
        {
          "name": "_lowerprice",
          "type": "uint256"
        },
        {
          "name": "_nobarginprice",
          "type": "uint256"
        },
        {
          "name": "_key",
          "type": "string"
        }
      ],
      "name": "createsale",
      "outputs": [],
      "payable": true,
      "stateMutability": "payable",
      "type": "function",
      "signature": "0x0b59a4fa"
    },
    {
      "constant": true,
      "inputs": [
        {
          "name": "a",
          "type": "uint256"
        },
        {
          "name": "b",
          "type": "uint256"
        }
      ],
      "name": "add",
      "outputs": [
        {
          "name": "",
          "type": "uint256"
        }
      ],
      "payable": false,
      "stateMutability": "pure",
      "type": "function",
      "signature": "0x771602f7"
    },
    {
      "constant": true,
      "inputs": [],
      "name": "getgoodcount",
      "outputs": [
        {
          "name": "",
          "type": "uint256"
        }
      ],
      "payable": false,
      "stateMutability": "view",
      "type": "function",
      "signature": "0x5c11115a"
    },
    {
      "constant": true,
      "inputs": [],
      "name": "queryall",
      "outputs": [
        {
          "name": "",
          "type": "string[]"
        }
      ],
      "payable": false,
      "stateMutability": "view",
      "type": "function",
      "signature": "0xd60ec168"
    },
    {
      "constant": true,
      "inputs": [
        {
          "name": "id",
          "type": "uint256"
        }
      ],
      "name": "querygoodbyid",
      "outputs": [
        {
          "name": "",
          "type": "uint256"
        },
        {
          "name": "",
          "type": "string"
        },
        {
          "name": "",
          "type": "uint256"
        },
        {
          "name": "",
          "type": "uint8"
        },
        {
          "name": "",
          "type": "string"
        }
      ],
      "payable": false,
      "stateMutability": "view",
      "type": "function",
      "signature": "0x53663060"
    },
    {
      "constant": false,
      "inputs": [
        {
          "name": "id",
          "type": "uint256"
        }
      ],
      "name": "cancelsale",
      "outputs": [
        {
          "name": "",
          "type": "string"
        },
        {
          "name": "",
          "type": "bool"
        }
      ],
      "payable": false,
      "stateMutability": "nonpayable",
      "type": "function",
      "signature": "0x93a7633d"
    },
    {
      "constant": false,
      "inputs": [
        {
          "name": "id",
          "type": "uint256"
        }
      ],
      "name": "acceptgood",
      "outputs": [
        {
          "name": "",
          "type": "string"
        },
        {
          "name": "",
          "type": "bool"
        }
      ],
      "payable": false,
      "stateMutability": "nonpayable",
      "type": "function",
      "signature": "0xf1ffc6cd"
    },
    {
      "constant": false,
      "inputs": [
        {
          "name": "id",
          "type": "uint256"
        }
      ],
      "name": "cancelorder",
      "outputs": [
        {
          "name": "",
          "type": "string"
        },
        {
          "name": "",
          "type": "bool"
        }
      ],
      "payable": false,
      "stateMutability": "nonpayable",
      "type": "function",
      "signature": "0x3d0b3f3d"
    }
  ],
  "bytecode": "0x6080604052336000806101000a81548173ffffffffffffffffffffffffffffffffffffffff021916908373ffffffffffffffffffffffffffffffffffffffff16021790555060006002819055506129dd8061005b6000396000f3006080604052600436106100e6576000357c0100000000000000000000000000000000000000000000000000000000900463ffffffff16806308551a53146100eb5780630b59a4fa1461011657806312065fe01461013257806320ba062c1461015e57806322947a60146101895780633d0b3f3d146101b957806353663060146101f75780635c11115a14610238578063771602f71461026357806393a7633d146102a0578063ae4f85c0146102de578063d60ec1681461030f578063d96a094a1461033a578063f1ffc6cd1461036b578063f35bcbfe146103a9578063f698fe9e146103e7575b600080fd5b3480156100f757600080fd5b506101006103fe565b60405161010d9190612679565b60405180910390f35b610130600480360361012b9190810190612358565b610423565b005b34801561013e57600080fd5b50610147610631565b604051610155929190612708565b60405180910390f35b34801561016a57600080fd5b50610173610727565b60405161018091906127d8565b60405180910390f35b6101a3600480360361019e91908101906123eb565b61072d565b6040516101b091906126b6565b60405180910390f35b3480156101c557600080fd5b506101e060048036036101db91908101906123eb565b610a62565b6040516101ee9291906126d8565b60405180910390f35b34801561020357600080fd5b5061021e600480360361021991908101906123eb565b610d4f565b60405161022f9594939291906127f3565b60405180910390f35b34801561024457600080fd5b5061024d61103e565b60405161025a91906127d8565b60405180910390f35b34801561026f57600080fd5b5061028a60048036036102859190810190612414565b6110c2565b60405161029791906127d8565b60405180910390f35b3480156102ac57600080fd5b506102c760048036036102c291908101906123eb565b6110cf565b6040516102d59291906126d8565b60405180910390f35b6102f860048036036102f391908101906123eb565b611407565b6040516103069291906126d8565b60405180910390f35b34801561031b57600080fd5b50610324611609565b6040516103319190612694565b60405180910390f35b610354600480360361034f91908101906123eb565b611745565b6040516103629291906126d8565b60405180910390f35b34801561037757600080fd5b50610392600480360361038d91908101906123eb565b611afa565b6040516103a09291906126d8565b60405180910390f35b3480156103b557600080fd5b506103d060048036036103cb91908101906123eb565b611e5f565b6040516103de9291906126d8565b60405180910390f35b3480156103f357600080fd5b506103fc6120c9565b005b6000809054906101000a900473ffffffffffffffffffffffffffffffffffffffff1681565b61042b6121db565b8360020234111515610472576040517f08c379a0000000000000000000000000000000000000000000000000000000008152600401610469906127b8565b60405180910390fd5b600254816020018181525050600260008154809291906001019190505550848160e0018190525083816060018181525050838160800181815250508281604001818152505060008160c0019060038111156104c957fe5b908160038111156104d657fe5b8152505030816000019073ffffffffffffffffffffffffffffffffffffffff16908173ffffffffffffffffffffffffffffffffffffffff1681525050818161010001819052506003819080600181540180825580915050906001820390600052602060002090600902016000909192909190915060008201518160000160006101000a81548173ffffffffffffffffffffffffffffffffffffffff021916908373ffffffffffffffffffffffffffffffffffffffff1602179055506020820151816001015560408201518160020155606082015181600301556080820151816004015560a0820151816005015560c08201518160060160006101000a81548160ff021916908360038111156105e757fe5b021790555060e0820151816007019080519060200190610608929190612249565b50610100820151816008019080519060200190610626929190612249565b505050505050505050565b606060003373ffffffffffffffffffffffffffffffffffffffff166000809054906101000a900473ffffffffffffffffffffffffffffffffffffffff1673ffffffffffffffffffffffffffffffffffffffff1614156106e2573073ffffffffffffffffffffffffffffffffffffffff16316040805190810160405280601281526020017fe59088e7baa6e79a84e4bd99e9a29de4b8ba00000000000000000000000000008152509091509150610723565b60006040805190810160405280600c81526020017fe697a0e69d83e69fa5e8afa2000000000000000000000000000000000000000081525090809050915091505b9091565b60025481565b60603373ffffffffffffffffffffffffffffffffffffffff166000809054906101000a900473ffffffffffffffffffffffffffffffffffffffff1673ffffffffffffffffffffffffffffffffffffffff16141515156107c1576040517f08c379a00000000000000000000000000000000000000000000000000000000081526004016107b890612758565b60405180910390fd5b60025482101515610807576040517f08c379a00000000000000000000000000000000000000000000000000000000081526004016107fe90612738565b60405180910390fd5b6000600381111561081457fe5b60038381548110151561082357fe5b906000526020600020906009020160060160009054906101000a900460ff16600381111561084d57fe5b14156109dd5760038281548110151561086257fe5b90600052602060002090600902016002015434111561095957600160038381548110151561088c57fe5b906000526020600020906009020160060160006101000a81548160ff021916908360038111156108b857fe5b0217905550336003838154811015156108cd57fe5b906000526020600020906009020160000160006101000a81548173ffffffffffffffffffffffffffffffffffffffff021916908373ffffffffffffffffffffffffffffffffffffffff1602179055506040805190810160405280600c81526020017fe68890e58a9fe8b4ade4b9b000000000000000000000000000000000000000008152509050610a5d565b3373ffffffffffffffffffffffffffffffffffffffff166108fc349081150290604051600060405180830381858888f1935050505015801561099f573d6000803e3d6000fd5b506040805190810160405280600c81526020017fe98791e9a29de4b88de8b6b300000000000000000000000000000000000000008152509050610a5d565b3373ffffffffffffffffffffffffffffffffffffffff166108fc349081150290604051600060405180830381858888f19350505050158015610a23573d6000803e3d6000fd5b506040805190810160405280601581526020017fe8b4a7e59381e5b7b2e7bb93e69d9fe4baa4e69893000000000000000000000081525090505b919050565b60606000600254831115610ab25760006040805190810160405280601581526020017fe99499e8afafe79a84e8b4a7e59381e7bc96e58fb700000000000000000000008152509091509150610d4a565b60006003811115610abf57fe5b600384815481101515610ace57fe5b906000526020600020906009020160060160009054906101000a900460ff166003811115610af857fe5b148015610b7057503373ffffffffffffffffffffffffffffffffffffffff16600384815481101515610b2657fe5b906000526020600020906009020160000160009054906101000a900473ffffffffffffffffffffffffffffffffffffffff1673ffffffffffffffffffffffffffffffffffffffff16145b1515610bb1576040517f08c379a0000000000000000000000000000000000000000000000000000000008152600401610ba890612798565b60405180910390fd5b600383815481101515610bc057fe5b906000526020600020906009020160000160009054906101000a900473ffffffffffffffffffffffffffffffffffffffff1673ffffffffffffffffffffffffffffffffffffffff166108fc60646063600387815481101515610c1e57fe5b90600052602060002090600902016003015402811515610c3a57fe5b049081150290604051600060405180830381858888f19350505050158015610c66573d6000803e3d6000fd5b506000600384815481101515610c7857fe5b906000526020600020906009020160000160006101000a81548173ffffffffffffffffffffffffffffffffffffffff021916908373ffffffffffffffffffffffffffffffffffffffff160217905550600383815481101515610cd657fe5b906000526020600020906009020160040154600384815481101515610cf757fe5b90600052602060002090600902016003018190555060016040805190810160405280601281526020017fe58f96e6b688e8aea2e58d95e68890e58a9f000000000000000000000000000081525090915091505b915091565b600060606000806060610d606121db565b60025487101515610da6576040517f08c379a0000000000000000000000000000000000000000000000000000000008152600401610d9d90612738565b60405180910390fd5b600387815481101515610db557fe5b906000526020600020906009020161012060405190810160405290816000820160009054906101000a900473ffffffffffffffffffffffffffffffffffffffff1673ffffffffffffffffffffffffffffffffffffffff1673ffffffffffffffffffffffffffffffffffffffff16815260200160018201548152602001600282015481526020016003820154815260200160048201548152602001600582015481526020016006820160009054906101000a900460ff166003811115610e7657fe5b6003811115610e8157fe5b8152602001600782018054600181600116156101000203166002900480601f016020809104026020016040519081016040528092919081815260200182805460018160011615610100020316600290048015610f1e5780601f10610ef357610100808354040283529160200191610f1e565b820191906000526020600020905b815481529060010190602001808311610f0157829003601f168201915b50505050508152602001600882018054600181600116156101000203166002900480601f016020809104026020016040519081016040528092919081815260200182805460018160011615610100020316600290048015610fc05780601f10610f9557610100808354040283529160200191610fc0565b820191906000526020600020905b815481529060010190602001808311610fa357829003601f168201915b50505050508152505090506040805190810160405280600681526020017f2a2a2a2a2a2a000000000000000000000000000000000000000000000000000081525081610100018190525080602001518160e0015182606001518360c00151846101000151839350809050955095509550955095505091939590929450565b6000806000809150600090505b6003805490508110156110ba576000600381111561106557fe5b60038281548110151561107457fe5b906000526020600020906009020160060160009054906101000a900460ff16600381111561109e57fe5b14156110ad5781806001019250505b808060010191505061104b565b819250505090565b6000818301905092915050565b6060600060025483111561111f5760006040805190810160405280601581526020017fe99499e8afafe79a84e8b4a7e59381e7bc96e58fb700000000000000000000008152509091509150611402565b6000600381111561112c57fe5b60038481548110151561113b57fe5b906000526020600020906009020160060160009054906101000a900460ff16600381111561116557fe5b14156113c45760038381548110151561117a57fe5b906000526020600020906009020160000160009054906101000a900473ffffffffffffffffffffffffffffffffffffffff1673ffffffffffffffffffffffffffffffffffffffff166000809054906101000a900473ffffffffffffffffffffffffffffffffffffffff1673ffffffffffffffffffffffffffffffffffffffff161415611290576000809054906101000a900473ffffffffffffffffffffffffffffffffffffffff1673ffffffffffffffffffffffffffffffffffffffff166108fc600260038681548110151561124c57fe5b906000526020600020906009020160040154029081150290604051600060405180830381858888f1935050505015801561128a573d6000803e3d6000fd5b506113c3565b60038381548110151561129f57fe5b906000526020600020906009020160000160009054906101000a900473ffffffffffffffffffffffffffffffffffffffff1673ffffffffffffffffffffffffffffffffffffffff166108fc6003858154811015156112f957fe5b9060005260206000209060090201600301549081150290604051600060405180830381858888f19350505050158015611336573d6000803e3d6000fd5b506000809054906101000a900473ffffffffffffffffffffffffffffffffffffffff1673ffffffffffffffffffffffffffffffffffffffff166108fc600260038681548110151561138357fe5b906000526020600020906009020160040154029081150290604051600060405180830381858888f193505050501580156113c1573d6000803e3d6000fd5b505b5b60016040805190810160405280601281526020017fe692a4e99480e59586e59381e68890e58a9f000000000000000000000000000081525090915091505b915091565b606060006001600381111561141857fe5b60038481548110151561142757fe5b906000526020600020906009020160060160009054906101000a900460ff16600381111561145157fe5b1480156114aa57506000809054906101000a900473ffffffffffffffffffffffffffffffffffffffff1673ffffffffffffffffffffffffffffffffffffffff163373ffffffffffffffffffffffffffffffffffffffff16145b156115c6576002548311156114fb5760006040805190810160405280601581526020017fe99499e8afafe79a84e8b4a7e59381e7bc96e58fb700000000000000000000008152509091509150611604565b3373ffffffffffffffffffffffffffffffffffffffff166108fc349081150290604051600060405180830381858888f19350505050158015611541573d6000803e3d6000fd5b50600260038481548110151561155357fe5b906000526020600020906009020160060160006101000a81548160ff0219169083600381111561157f57fe5b021790555060016040805190810160405280600c81526020017fe68890e58a9fe7a1aee8aea400000000000000000000000000000000000000008152509091509150611604565b60006040805190810160405280601e81526020017fe58faae69c89e5ba97e4b8bbe6898de883bde7a1aee5ae9ae8aea2e58d95000081525090915091505b915091565b606080600060038054905060405190808252806020026020018201604052801561164757816020015b60608152602001906001900390816116325790505b509150600090505b60038054905081101561173d5760038181548110151561166b57fe5b90600052602060002090600902016007018054600181600116156101000203166002900480601f0160208091040260200160405190810160405280929190818152602001828054600181600116156101000203166002900480156117105780601f106116e557610100808354040283529160200191611710565b820191906000526020600020905b8154815290600101906020018083116116f357829003601f168201915b5050505050828281518110151561172357fe5b90602001906020020181905250808060010191505061164f565b819250505090565b60606000803373ffffffffffffffffffffffffffffffffffffffff166000809054906101000a900473ffffffffffffffffffffffffffffffffffffffff1673ffffffffffffffffffffffffffffffffffffffff16141515156117dc576040517f08c379a00000000000000000000000000000000000000000000000000000000081526004016117d390612758565b60405180910390fd5b60025484101515611822576040517f08c379a000000000000000000000000000000000000000000000000000000000815260040161181990612738565b60405180910390fd5b3490506000600381111561183257fe5b60038581548110151561184157fe5b906000526020600020906009020160060160009054906101000a900460ff16600381111561186b57fe5b1415611ab65760038481548110151561188057fe5b906000526020600020906009020160030154811115611a06576003848154811015156118a857fe5b906000526020600020906009020160000160009054906101000a900473ffffffffffffffffffffffffffffffffffffffff1673ffffffffffffffffffffffffffffffffffffffff166108fc60038681548110151561190257fe5b9060005260206000209060090201600301549081150290604051600060405180830381858888f1935050505015801561193f573d6000803e3d6000fd5b508060038581548110151561195057fe5b9060005260206000209060090201600301819055503360038581548110151561197557fe5b906000526020600020906009020160000160006101000a81548173ffffffffffffffffffffffffffffffffffffffff021916908373ffffffffffffffffffffffffffffffffffffffff16021790555060016040805190810160405280600c81526020017fe68890e58a9fe7ab9ee68b8d00000000000000000000000000000000000000008152509092509250611af4565b3373ffffffffffffffffffffffffffffffffffffffff166108fc829081150290604051600060405180830381858888f19350505050158015611a4c573d6000803e3d6000fd5b506000606060405190810160405280602181526020017fe4b88de8b6b3e4bba5e68890e4b8bae69c80e9ab98e68a95e6a087e88085efbc81526020017f81000000000000000000000000000000000000000000000000000000000000008152509092509250611af4565b60006040805190810160405280601581526020017fe8b4a7e59381e5b7b2e7bb93e69d9fe4baa4e69893000000000000000000000081525090925092505b50915091565b60606000806003811115611b0a57fe5b600384815481101515611b1957fe5b906000526020600020906009020160060160009054906101000a900460ff166003811115611b4357fe5b148015611bbb57503373ffffffffffffffffffffffffffffffffffffffff16600384815481101515611b7157fe5b906000526020600020906009020160000160009054906101000a900473ffffffffffffffffffffffffffffffffffffffff1673ffffffffffffffffffffffffffffffffffffffff16145b1515611bfc576040517f08c379a0000000000000000000000000000000000000000000000000000000008152600401611bf390612798565b60405180910390fd5b600254831115611c485760006040805190810160405280601581526020017fe99499e8afafe79a84e8b4a7e59381e7bc96e58fb700000000000000000000008152509091509150611e5a565b60026003811115611c5557fe5b600384815481101515611c6457fe5b906000526020600020906009020160060160009054906101000a900460ff166003811115611c8e57fe5b148015611d065750600383815481101515611ca557fe5b906000526020600020906009020160000160009054906101000a900473ffffffffffffffffffffffffffffffffffffffff1673ffffffffffffffffffffffffffffffffffffffff163373ffffffffffffffffffffffffffffffffffffffff16145b15611e1c576000809054906101000a900473ffffffffffffffffffffffffffffffffffffffff1673ffffffffffffffffffffffffffffffffffffffff166108fc600385815481101515611d5557fe5b9060005260206000209060090201600301549081150290604051600060405180830381858888f19350505050158015611d92573d6000803e3d6000fd5b50600380811115611d9f57fe5b600384815481101515611dae57fe5b906000526020600020906009020160060160009054906101000a900460ff166003811115611dd857fe5b505060016040805190810160405280600f81526020017fe694b6e8b4a7e68890e58a9fefbc8100000000000000000000000000000000008152509091509150611e5a565b60006040805190810160405280600c81526020017fe694b6e8b4a7e5a4b1e8b4a5000000000000000000000000000000000000000081525090915091505b915091565b60606000600254831115611eaf5760006040805190810160405280601581526020017fe99499e8afafe79a84e8b4a7e59381e7bc96e58fb7000000000000000000000081525090915091506120c4565b600383815481101515611ebe57fe5b906000526020600020906009020160000160009054906101000a900473ffffffffffffffffffffffffffffffffffffffff1673ffffffffffffffffffffffffffffffffffffffff163373ffffffffffffffffffffffffffffffffffffffff16148015611fba575060026003811115611f3257fe5b600384815481101515611f4157fe5b906000526020600020906009020160060160009054906101000a900460ff166003811115611f6b57fe5b1480611fb95750600380811115611f7e57fe5b600384815481101515611f8d57fe5b906000526020600020906009020160060160009054906101000a900460ff166003811115611fb757fe5b145b5b1561208657600383815481101515611fce57fe5b90600052602060002090600902016008016001818054600181600116156101000203166002900480601f0160208091040260200160405190810160405280929190818152602001828054600181600116156101000203166002900480156120765780601f1061204b57610100808354040283529160200191612076565b820191906000526020600020905b81548152906001019060200180831161205957829003601f168201915b50505050509150915091506120c4565b60006040805190810160405280600c81526020017fe697a0e69d83e58f96e8b4a7000000000000000000000000000000000000000081525090915091505b915091565b6000809054906101000a900473ffffffffffffffffffffffffffffffffffffffff1673ffffffffffffffffffffffffffffffffffffffff163373ffffffffffffffffffffffffffffffffffffffff1614151561215a576040517f08c379a000000000000000000000000000000000000000000000000000000000815260040161215190612778565b60405180910390fd5b6000809054906101000a900473ffffffffffffffffffffffffffffffffffffffff1673ffffffffffffffffffffffffffffffffffffffff166108fc3073ffffffffffffffffffffffffffffffffffffffff16319081150290604051600060405180830381858888f193505050501580156121d8573d6000803e3d6000fd5b50565b61012060405190810160405280600073ffffffffffffffffffffffffffffffffffffffff16815260200160008152602001600081526020016000815260200160008152602001600081526020016000600381111561223557fe5b815260200160608152602001606081525090565b828054600181600116156101000203166002900490600052602060002090601f016020900481019282601f1061228a57805160ff19168380011785556122b8565b828001600101855582156122b8579182015b828111156122b757825182559160200191906001019061229c565b5b5090506122c591906122c9565b5090565b6122eb91905b808211156122e75760008160009055506001016122cf565b5090565b90565b600082601f830112151561230157600080fd5b813561231461230f82612881565b612854565b9150808252602083016020830185838301111561233057600080fd5b61233b838284612950565b50505092915050565b60006123508235612934565b905092915050565b6000806000806080858703121561236e57600080fd5b600085013567ffffffffffffffff81111561238857600080fd5b612394878288016122ee565b94505060206123a587828801612344565b93505060406123b687828801612344565b925050606085013567ffffffffffffffff8111156123d357600080fd5b6123df878288016122ee565b91505092959194509250565b6000602082840312156123fd57600080fd5b600061240b84828501612344565b91505092915050565b6000806040838503121561242757600080fd5b600061243585828601612344565b925050602061244685828601612344565b9150509250929050565b612459816128e8565b82525050565b600061246a826128ba565b80845260208401935083602082028501612483856128ad565b60005b848110156124bc57838303885261249e838351612521565b92506124a9826128db565b9150602088019750600181019050612486565b508196508694505050505092915050565b6124d681612908565b82525050565b6124e58161293e565b82525050565b60006124f6826128d0565b80845261250a81602086016020860161295f565b61251381612992565b602085010191505092915050565b600061252c826128c5565b80845261254081602086016020860161295f565b61254981612992565b602085010191505092915050565b6000601582527fe99499e8afafe79a84e8b4a7e59381e7bc96e58fb700000000000000000000006020830152604082019050919050565b6000601882527fe5ba97e4b8bbe4b88de883bde58f82e4b88ee8b4ade4b9b000000000000000006020830152604082019050919050565b6000600c82527fe697a0e69d83e58f96e992b100000000000000000000000000000000000000006020830152604082019050919050565b6000600c82527fe697a0e69d83e6938de4bd9c00000000000000000000000000000000000000006020830152604082019050919050565b6000601982527fe68abce98791e8bf87e5b0912ce697a0e6b395e4b88ae69eb6000000000000006020830152604082019050919050565b6126738161292a565b82525050565b600060208201905061268e6000830184612450565b92915050565b600060208201905081810360008301526126ae818461245f565b905092915050565b600060208201905081810360008301526126d081846124eb565b905092915050565b600060408201905081810360008301526126f281856124eb565b905061270160208301846124cd565b9392505050565b6000604082019050818103600083015261272281856124eb565b9050612731602083018461266a565b9392505050565b6000602082019050818103600083015261275181612557565b9050919050565b600060208201905081810360008301526127718161258e565b9050919050565b60006020820190508181036000830152612791816125c5565b9050919050565b600060208201905081810360008301526127b1816125fc565b9050919050565b600060208201905081810360008301526127d181612633565b9050919050565b60006020820190506127ed600083018461266a565b92915050565b600060a082019050612808600083018861266a565b818103602083015261281a81876124eb565b9050612829604083018661266a565b61283660608301856124dc565b818103608083015261284881846124eb565b90509695505050505050565b6000604051905081810181811067ffffffffffffffff8211171561287757600080fd5b8060405250919050565b600067ffffffffffffffff82111561289857600080fd5b601f19601f8301169050602081019050919050565b6000602082019050919050565b600081519050919050565b600081519050919050565b600081519050919050565b6000602082019050919050565b600073ffffffffffffffffffffffffffffffffffffffff82169050919050565b60008115159050919050565b600060048210151561292257fe5b819050919050565b6000819050919050565b6000819050919050565b600061294982612914565b9050919050565b82818337600083830152505050565b60005b8381101561297d578082015181840152602081019050612962565b8381111561298c576000848401525b50505050565b6000601f19601f83011690509190505600a265627a7a72305820a5f1060d82c35b42d42c4b4880d3d9fc17b2ce4ffc7069f0dc72cfeb6689f6806c6578706572696d656e74616cf50037",
  "source": "pragma solidity ^0.4.25;\r\npragma experimental ABIEncoderV2;\r\ncontract SmartMarket{\r\n    address public seller;\r\n    string private key;\r\n    uint public goodcount;\r\n    struct good{\r\n        address HighestBidder;\r\n        uint id;\r\n        uint nobarginprice;\r\n        uint nowprice;\r\n        uint lowestprice;\r\n        uint time;\r\n        state tradestate;\r\n        string name;\r\n        string key;\r\n    }\r\n    good[] private shelves;\r\n    enum state {\r\n        opened,\r\n        locked,\r\n        buyeraccept,\r\n        completed\r\n    }\r\n    \r\n    constructor () public payable{\r\n        seller = msg.sender;\r\n        goodcount = 0;\r\n    }\r\n    \r\n    function buyitnowprice(uint id) payable public returns(string){\r\n        require(seller!=msg.sender,\"\");\r\n        require(id<goodcount,\"\");\r\n        if(shelves[id].tradestate == state.opened)\r\n        {\r\n            if(msg.value>shelves[id].nobarginprice){\r\n                shelves[id].tradestate = state.locked;\r\n                shelves[id].HighestBidder = msg.sender;\r\n                return (\"\");\r\n            }else{\r\n                msg.sender.transfer(msg.value);\r\n                return (\"\");\r\n            }\r\n        }else{\r\n            msg.sender.transfer(msg.value);\r\n            return(\"\");\r\n        }\r\n    }\r\n    \r\n    function buy (uint id) payable public returns(string,bool){\r\n        require(seller!=msg.sender,\"\");\r\n        require(id<goodcount,\"\");\r\n        uint newprice = msg.value;\r\n        if(shelves[id].tradestate == state.opened)\r\n        {\r\n            if(newprice > shelves[id].nowprice){\r\n                shelves[id].HighestBidder.transfer(shelves[id].nowprice);\r\n                shelves[id].nowprice = newprice;\r\n                shelves[id].HighestBidder = msg.sender;\r\n                return(\"\",true);\r\n            }\r\n            msg.sender.transfer(newprice);\r\n            return(\"\",false);\r\n        }\r\n        else\r\n        {\r\n            return(\"\",false);\r\n        }\r\n    }\r\n    \r\n    function getBalance () public view returns(string,uint) {\r\n        if(seller == msg.sender)\r\n            return (\"\",address(this).balance);\r\n        else\r\n            return (\"\", 0);\r\n    }\r\n    \r\n    function sellerconfirm (uint id) payable public returns(string,bool) {\r\n        if(shelves[id].tradestate == state.locked && msg.sender == seller){\r\n            if(id>goodcount){\r\n                return(\"\",false);\r\n            }else{\r\n                msg.sender.transfer(msg.value);\r\n                shelves[id].tradestate = state.buyeraccept;\r\n                return (\"\",true);\r\n            }\r\n        }\r\n        else{\r\n            return(\"\",false);\r\n        }\r\n    }\r\n    \r\n    function extraction (uint id) public view returns(string, bool){\r\n        if(id>goodcount)\r\n        {\r\n            return (\"\",false);\r\n        }\r\n        if(msg.sender == shelves[id].HighestBidder && (shelves[id].tradestate == state.buyeraccept||shelves[id].tradestate == state.completed))\r\n        {\r\n            return (shelves[id].key,true);\r\n        }else\r\n        {\r\n            return (\"\",false);\r\n        }\r\n    }\r\n    \r\n    function takemoney () public{\r\n        require(msg.sender == seller,\"\");\r\n        seller.transfer(address(this).balance);\r\n    }\r\n    \r\n    function createsale(string _name, uint _lowerprice, uint _nobarginprice,string _key) public payable {\r\n        require(msg.value > 2*_lowerprice,\",\");\r\n        good memory g;\r\n        g.id = goodcount;\r\n        goodcount++;\r\n        g.name = _name;\r\n        g.nowprice = _lowerprice;\r\n        g.lowestprice = _lowerprice;\r\n        g.nobarginprice = _nobarginprice;\r\n        g.tradestate = state.opened;\r\n        g.HighestBidder = this;\r\n        g.key = _key;\r\n        shelves.push(g);\r\n    }\r\n    \r\n    function add(uint a, uint b) public pure returns (uint){\r\n        return a+b;\r\n    }\r\n    \r\n    function getgoodcount() public view returns(uint){\r\n        uint num =0;\r\n        for(uint i = 0;i<shelves.length;i++){\r\n            if(shelves[i].tradestate== state.opened){\r\n                num ++;\r\n            }\r\n        }\r\n        return num;\r\n    }\r\n    \r\n    function queryall() public view returns(string []){\r\n        string [] memory allgoods = new string [](shelves.length);\r\n        for(uint i=0;i<shelves.length;i++){\r\n            allgoods[i]=(shelves[i].name);\r\n        }\r\n        return allgoods;\r\n    }\r\n    \r\n    function querygoodbyid(uint id) public view returns(uint,string,uint,state,string){\r\n        require(id<goodcount,\"\");\r\n        good memory thegood;\r\n        thegood = shelves[id];\r\n        thegood.key = \"******\";\r\n        return(thegood.id,thegood.name,thegood.nowprice,thegood.tradestate,thegood.key);\r\n    }\r\n\r\n    function cancelsale(uint id) public returns (string,bool){\r\n        if(id>goodcount)\r\n        {\r\n            return (\"\",false);\r\n        }\r\n        if(shelves[id].tradestate == state.opened)\r\n        {\r\n            if(seller == shelves[id].HighestBidder)\r\n            {\r\n                seller.transfer(shelves[id].lowestprice * 2);\r\n            }\r\n            else{\r\n                shelves[id].HighestBidder.transfer(shelves[id].nowprice);\r\n                seller.transfer(shelves[id].lowestprice * 2);\r\n            }\r\n        }\r\n        return (\"\",true);\r\n    }\r\n    \r\n    function acceptgood(uint id) public returns (string,bool){\r\n        require(shelves[id].tradestate == state.opened && shelves[id].HighestBidder == msg.sender,\"\");\r\n        if(id>goodcount)\r\n        {\r\n            return (\"\",false);\r\n        }\r\n        if(shelves[id].tradestate == state.buyeraccept && msg.sender == shelves[id].HighestBidder)\r\n        {\r\n            seller.transfer(shelves[id].nowprice);\r\n            shelves[id].tradestate == state.completed;\r\n            return (\"\",true);\r\n        }else{\r\n            return (\"\",false);\r\n        }\r\n    }\r\n    \r\n    function cancelorder(uint id) public returns (string,bool){\r\n        if(id>goodcount)\r\n        {\r\n            return (\"\",false);\r\n        }\r\n        require(shelves[id].tradestate == state.opened && shelves[id].HighestBidder == msg.sender,\"\");\r\n        shelves[id].HighestBidder.transfer(shelves[id].nowprice * 99/100);\r\n        shelves[id].HighestBidder = 0;\r\n        shelves[id].nowprice = shelves[id].lowestprice;\r\n        return (\"\",true);\r\n    }\r\n}",
  "sourcePath": "E:/learning///project//project/contracts/SmartMarket.sol",
  "compiler": {
    "name": "solc",
    "version": "0.4.25+commit.59dbf8f1.Emscripten.clang"
  },
  "schemaVersion": "3.0.0",
  "updatedAt": "2018-12-31T07:49:53.210Z",
  "devdoc": {
    "methods": {}
  },
  "userdoc": {
    "methods": {}
  }
}